{
  "contractName": "EnsTitle",
  "abi": [
    {
      "anonymous": false,
      "inputs": [
        {
          "indexed": false,
          "internalType": "address",
          "name": "oldRule",
          "type": "address"
        },
        {
          "indexed": false,
          "internalType": "address",
          "name": "newRule",
          "type": "address"
        }
      ],
      "name": "PriceChanged",
      "type": "event"
    },
    {
      "anonymous": false,
      "inputs": [
        {
          "indexed": false,
          "internalType": "string",
          "name": "title",
          "type": "string"
        },
        {
          "indexed": false,
          "internalType": "string",
          "name": "ens",
          "type": "string"
        },
        {
          "indexed": false,
          "internalType": "address",
          "name": "owner",
          "type": "address"
        },
        {
          "indexed": false,
          "internalType": "uint256",
          "name": "price",
          "type": "uint256"
        }
      ],
      "name": "TitleCreated",
      "type": "event"
    },
    {
      "inputs": [
        {
          "internalType": "string",
          "name": "title",
          "type": "string"
        }
      ],
      "name": "queryPrice",
      "outputs": [
        {
          "internalType": "uint256",
          "name": "",
          "type": "uint256"
        }
      ],
      "stateMutability": "view",
      "type": "function"
    },
    {
      "inputs": [
        {
          "internalType": "address",
          "name": "ruleContractAddress",
          "type": "address"
        }
      ],
      "name": "setPriceRule",
      "outputs": [],
      "stateMutability": "nonpayable",
      "type": "function"
    },
    {
      "inputs": [
        {
          "internalType": "string",
          "name": "domainPrefix",
          "type": "string"
        },
        {
          "internalType": "string",
          "name": "newTitle",
          "type": "string"
        }
      ],
      "name": "addTitle",
      "outputs": [],
      "stateMutability": "payable",
      "type": "function"
    },
    {
      "inputs": [
        {
          "internalType": "string",
          "name": "title",
          "type": "string"
        }
      ],
      "name": "checkTitleUsed",
      "outputs": [
        {
          "internalType": "bool",
          "name": "",
          "type": "bool"
        }
      ],
      "stateMutability": "view",
      "type": "function"
    },
    {
      "inputs": [
        {
          "internalType": "string",
          "name": "domainPrefix",
          "type": "string"
        }
      ],
      "name": "getTitles",
      "outputs": [
        {
          "internalType": "string[]",
          "name": "",
          "type": "string[]"
        }
      ],
      "stateMutability": "view",
      "type": "function"
    }
  ],
  "bytecode": "0x60806040526e0c2e074ec69a0dfb2997ba6c7d2e1e600060016101000a81548173ffffffffffffffffffffffffffffffffffffffff021916908373ffffffffffffffffffffffffffffffffffffffff160217905550731f79544c06bd94c044bd388ffee03fee72025052600160006101000a81548173ffffffffffffffffffffffffffffffffffffffff021916908373ffffffffffffffffffffffffffffffffffffffff1602179055506000600260006101000a81548173ffffffffffffffffffffffffffffffffffffffff021916908373ffffffffffffffffffffffffffffffffffffffff1602179055503480156100f757600080fd5b50611758806101076000396000f3fe60806040526004361061004a5760003560e01c80634f5222251461004f5780637a89ae661461006b578063c0ee311c146100a8578063d386b31e146100e5578063eadc6ff314610122575b600080fd5b61006960048036038101906100649190610d0c565b61014b565b005b34801561007757600080fd5b50610092600480360381019061008d9190610d84565b6105b1565b60405161009f9190610de6565b60405180910390f35b3480156100b457600080fd5b506100cf60048036038101906100ca9190610d84565b6106bc565b6040516100dc9190610f4b565b60405180910390f35b3480156100f157600080fd5b5061010c60048036038101906101079190610d84565b6107b3565b6040516101199190610f88565b60405180910390f35b34801561012e57600080fd5b5061014960048036038101906101449190611001565b61080b565b005b60008054906101000a900460ff1615610199576040517f08c379a00000000000000000000000000000000000000000000000000000000081526004016101909061108b565b60405180910390fd5b60016000806101000a81548160ff021916908315150217905550600073ffffffffffffffffffffffffffffffffffffffff163373ffffffffffffffffffffffffffffffffffffffff1614156101ed57600080fd5b6000815111610231576040517f08c379a0000000000000000000000000000000000000000000000000000000008152600401610228906110f7565b60405180910390fd5b6040815110610275576040517f08c379a000000000000000000000000000000000000000000000000000000000815260040161026c90611163565b60405180910390fd5b6000610280826105b1565b9050600034116102c5576040517f08c379a00000000000000000000000000000000000000000000000000000000081526004016102bc906111cf565b60405180910390fd5b80341015610308576040517f08c379a00000000000000000000000000000000000000000000000000000000081526004016102ff9061123b565b60405180910390fd5b343373ffffffffffffffffffffffffffffffffffffffff16311015610362576040517f08c379a0000000000000000000000000000000000000000000000000000000008152600401610359906112a7565b60405180910390fd5b600061036d846109c2565b90503373ffffffffffffffffffffffffffffffffffffffff168173ffffffffffffffffffffffffffffffffffffffff16146103dd576040517f08c379a00000000000000000000000000000000000000000000000000000000081526004016103d490611313565b60405180910390fd5b6000836040516020016103f0919061136f565b6040516020818303038152906040528051906020012090506000600460008381526020019081526020016000208054610428906113b5565b90501461046a576040517f08c379a000000000000000000000000000000000000000000000000000000000815260040161046190611433565b60405180910390fd5b60038560405161047a919061136f565b9081526020016040518091039020849080600181540180825580915050600190039060005260206000200160009091909190915090805190602001906104c1929190610b0f565b50846004600083815260200190815260200160002090805190602001906104e9929190610b0f565b50600160009054906101000a900473ffffffffffffffffffffffffffffffffffffffff1673ffffffffffffffffffffffffffffffffffffffff166108fc349081150290604051600060405180830381858888f19350505050158015610552573d6000803e3d6000fd5b507fe31cadd9531d6be5e02015ac72dd867eb5a3df4b4ec9178ba3b8d859838fb4ef84868434604051610588949392919061149b565b60405180910390a150505060008060006101000a81548160ff0219169083151502179055505050565b60008073ffffffffffffffffffffffffffffffffffffffff16600260009054906101000a900473ffffffffffffffffffffffffffffffffffffffff1673ffffffffffffffffffffffffffffffffffffffff1614156106185766038d7ea4c6800090506106b7565b600260009054906101000a900473ffffffffffffffffffffffffffffffffffffffff1673ffffffffffffffffffffffffffffffffffffffff1663524f3889836040518263ffffffff1660e01b815260040161067391906114ee565b602060405180830381865afa158015610690573d6000803e3d6000fd5b505050506040513d601f19601f820116820180604052508101906106b4919061153c565b90505b919050565b60606003826040516106ce919061136f565b9081526020016040518091039020805480602002602001604051908101604052809291908181526020016000905b828210156107a857838290600052602060002001805461071b906113b5565b80601f0160208091040260200160405190810160405280929190818152602001828054610747906113b5565b80156107945780601f1061076957610100808354040283529160200191610794565b820191906000526020600020905b81548152906001019060200180831161077757829003601f168201915b5050505050815260200190600101906106fc565b505050509050919050565b600080826040516020016107c7919061136f565b60405160208183030381529060405280519060200120905060006004600083815260200190815260200160002080546107ff906113b5565b90501415915050919050565b60008054906101000a900460ff1615610859576040517f08c379a00000000000000000000000000000000000000000000000000000000081526004016108509061108b565b60405180910390fd5b60016000806101000a81548160ff021916908315150217905550600160009054906101000a900473ffffffffffffffffffffffffffffffffffffffff1673ffffffffffffffffffffffffffffffffffffffff163373ffffffffffffffffffffffffffffffffffffffff1614610903576040517f08c379a00000000000000000000000000000000000000000000000000000000081526004016108fa906115b5565b60405180910390fd5b6000600260009054906101000a900473ffffffffffffffffffffffffffffffffffffffff16905081600260006101000a81548173ffffffffffffffffffffffffffffffffffffffff021916908373ffffffffffffffffffffffffffffffffffffffff1602179055507fad1518b8ad29e535729de32b6319f372cc5c85dcb97de3060b6980efa7998adf818360405161099c9291906115d5565b60405180910390a15060008060006101000a81548160ff02191690831515021790555050565b6000806000801b9050806040516020016109db9061164a565b60405160208183030381529060405280519060200120604051602001610a0292919061168a565b6040516020818303038152906040528051906020012090508083604051602001610a2c919061136f565b60405160208183030381529060405280519060200120604051602001610a5392919061168a565b604051602081830303815290604052805190602001209050600060019054906101000a900473ffffffffffffffffffffffffffffffffffffffff1673ffffffffffffffffffffffffffffffffffffffff166302571be3826040518263ffffffff1660e01b8152600401610ac691906116c5565b602060405180830381865afa158015610ae3573d6000803e3d6000fd5b505050506040513d601f19601f82011682018060405250810190610b0791906116f5565b915050919050565b828054610b1b906113b5565b90600052602060002090601f016020900481019282610b3d5760008555610b84565b82601f10610b5657805160ff1916838001178555610b84565b82800160010185558215610b84579182015b82811115610b83578251825591602001919060010190610b68565b5b509050610b919190610b95565b5090565b5b80821115610bae576000816000905550600101610b96565b5090565b6000604051905090565b600080fd5b600080fd5b600080fd5b600080fd5b6000601f19601f8301169050919050565b7f4e487b7100000000000000000000000000000000000000000000000000000000600052604160045260246000fd5b610c1982610bd0565b810181811067ffffffffffffffff82111715610c3857610c37610be1565b5b80604052505050565b6000610c4b610bb2565b9050610c578282610c10565b919050565b600067ffffffffffffffff821115610c7757610c76610be1565b5b610c8082610bd0565b9050602081019050919050565b82818337600083830152505050565b6000610caf610caa84610c5c565b610c41565b905082815260208101848484011115610ccb57610cca610bcb565b5b610cd6848285610c8d565b509392505050565b600082601f830112610cf357610cf2610bc6565b5b8135610d03848260208601610c9c565b91505092915050565b60008060408385031215610d2357610d22610bbc565b5b600083013567ffffffffffffffff811115610d4157610d40610bc1565b5b610d4d85828601610cde565b925050602083013567ffffffffffffffff811115610d6e57610d6d610bc1565b5b610d7a85828601610cde565b9150509250929050565b600060208284031215610d9a57610d99610bbc565b5b600082013567ffffffffffffffff811115610db857610db7610bc1565b5b610dc484828501610cde565b91505092915050565b6000819050919050565b610de081610dcd565b82525050565b6000602082019050610dfb6000830184610dd7565b92915050565b600081519050919050565b600082825260208201905092915050565b6000819050602082019050919050565b600081519050919050565b600082825260208201905092915050565b60005b83811015610e67578082015181840152602081019050610e4c565b83811115610e76576000848401525b50505050565b6000610e8782610e2d565b610e918185610e38565b9350610ea1818560208601610e49565b610eaa81610bd0565b840191505092915050565b6000610ec18383610e7c565b905092915050565b6000602082019050919050565b6000610ee182610e01565b610eeb8185610e0c565b935083602082028501610efd85610e1d565b8060005b85811015610f395784840389528151610f1a8582610eb5565b9450610f2583610ec9565b925060208a01995050600181019050610f01565b50829750879550505050505092915050565b60006020820190508181036000830152610f658184610ed6565b905092915050565b60008115159050919050565b610f8281610f6d565b82525050565b6000602082019050610f9d6000830184610f79565b92915050565b600073ffffffffffffffffffffffffffffffffffffffff82169050919050565b6000610fce82610fa3565b9050919050565b610fde81610fc3565b8114610fe957600080fd5b50565b600081359050610ffb81610fd5565b92915050565b60006020828403121561101757611016610bbc565b5b600061102584828501610fec565b91505092915050565b600082825260208201905092915050565b7f4e6f2072652d656e7472616e6379000000000000000000000000000000000000600082015250565b6000611075600e8361102e565b91506110808261103f565b602082019050919050565b600060208201905081810360008301526110a481611068565b9050919050565b7f7469746c652073686f756c64206e6f7420626520656d70747900000000000000600082015250565b60006110e160198361102e565b91506110ec826110ab565b602082019050919050565b60006020820190508181036000830152611110816110d4565b9050919050565b7f7469746c6520746f6f206c6f6e67000000000000000000000000000000000000600082015250565b600061114d600e8361102e565b915061115882611117565b602082019050919050565b6000602082019050818103600083015261117c81611140565b9050919050565b7f696e76616c696420706179000000000000000000000000000000000000000000600082015250565b60006111b9600b8361102e565b91506111c482611183565b602082019050919050565b600060208201905081810360008301526111e8816111ac565b9050919050565b7f7072696365207061796564206e6f7420656e6f75676800000000000000000000600082015250565b600061122560168361102e565b9150611230826111ef565b602082019050919050565b6000602082019050818103600083015261125481611218565b9050919050565b7f62616c616e6365206e6f7420656e6f7567680000000000000000000000000000600082015250565b600061129160128361102e565b915061129c8261125b565b602082019050919050565b600060208201905081810360008301526112c081611284565b9050919050565b7f6f6e6c7920454e53206f776e65722063616e20616464207469746c6500000000600082015250565b60006112fd601c8361102e565b9150611308826112c7565b602082019050919050565b6000602082019050818103600083015261132c816112f0565b9050919050565b600081905092915050565b600061134982610e2d565b6113538185611333565b9350611363818560208601610e49565b80840191505092915050565b600061137b828461133e565b915081905092915050565b7f4e487b7100000000000000000000000000000000000000000000000000000000600052602260045260246000fd5b600060028204905060018216806113cd57607f821691505b602082108114156113e1576113e0611386565b5b50919050565b7f7469746c6520616c7265616479206f6363757069656400000000000000000000600082015250565b600061141d60168361102e565b9150611428826113e7565b602082019050919050565b6000602082019050818103600083015261144c81611410565b9050919050565b600061145e82610e2d565b611468818561102e565b9350611478818560208601610e49565b61148181610bd0565b840191505092915050565b61149581610fc3565b82525050565b600060808201905081810360008301526114b58187611453565b905081810360208301526114c98186611453565b90506114d8604083018561148c565b6114e56060830184610dd7565b95945050505050565b600060208201905081810360008301526115088184611453565b905092915050565b61151981610dcd565b811461152457600080fd5b50565b60008151905061153681611510565b92915050565b60006020828403121561155257611551610bbc565b5b600061156084828501611527565b91505092915050565b7f6e6f74207065726d697474656400000000000000000000000000000000000000600082015250565b600061159f600d8361102e565b91506115aa82611569565b602082019050919050565b600060208201905081810360008301526115ce81611592565b9050919050565b60006040820190506115ea600083018561148c565b6115f7602083018461148c565b9392505050565b7f6574680000000000000000000000000000000000000000000000000000000000600082015250565b6000611634600383611333565b915061163f826115fe565b600382019050919050565b600061165582611627565b9150819050919050565b6000819050919050565b6000819050919050565b61168461167f8261165f565b611669565b82525050565b60006116968285611673565b6020820191506116a68284611673565b6020820191508190509392505050565b6116bf8161165f565b82525050565b60006020820190506116da60008301846116b6565b92915050565b6000815190506116ef81610fd5565b92915050565b60006020828403121561170b5761170a610bbc565b5b6000611719848285016116e0565b9150509291505056fea26469706673582212203a2b1bc0418f60c3739f4a8d0612d785b7cecc2f5d75e275d907c6b87cf209be64736f6c634300080a0033",
  "immutableReferences": {},
  "source": "// SPDX-License-Identifier: MIT\npragma solidity ^0.8.2;\n\nimport \"./IEns.sol\";\nimport \"./IPriceRule.sol\";\n\ncontract ReEntrancyGuard {\n    bool internal locked;\n    modifier noReentrant() {\n        require(!locked, \"No re-entrancy\");\n        locked = true;\n        _;\n        locked = false;\n    }\n}\n\ncontract EnsTitle is ReEntrancyGuard {\n  //ens contract address, same for Mainnet, Testnet\n\taddress private _ensRegistry = address(0x00000000000C2E074eC69A0dFb2997BA6C7d2e1e);\n  //admin, who receive ETH from users who add title\n  address payable private _admin = payable(0x1F79544C06bd94c044Bd388ffeE03FeE72025052); \n\n  //contract address to control title price\n  address private _priceRule = address(0x0);\n\n  //data store\n  mapping(string => string[]) _titles;\n  mapping(bytes32 => string) _titlesOwner;\n\n  event TitleCreated (\n    string title,\n    string ens,\n    address owner,\n    uint price\n  );\n\n  event PriceChanged (\n    address oldRule,\n    address newRule\n  );\n\n  // get price of title\n  function queryPrice(string memory title) public view returns (uint ) {\n    if (_priceRule == address(0x0)) {\n      return 1e15; // 0.001ETH ,dummy rule\n    } else {\n      return IPriceRule(_priceRule).getPrice(title);\n    }\n  }\n\n  // set price rule, only admin can do this\n  function setPriceRule(address ruleContractAddress) public noReentrant {\n    require(msg.sender == _admin, \"not permitted\");\n    address oldRule = _priceRule;\n    _priceRule = ruleContractAddress;\n    emit PriceChanged(oldRule, ruleContractAddress);\n  }\n\n  //add title for a user, with ETH payed\n  function addTitle(\n    string memory domainPrefix, \n    string memory newTitle) \n   public noReentrant payable  {\n      require(msg.sender != address(0));\n      //check invalid args\n      require(bytes(newTitle).length>0, \"title should not be empty\");\n      require(bytes(newTitle).length<64, \"title too long\");\n\n      uint price_need = queryPrice(newTitle);\n      require(msg.value > 0, \"invalid pay\");\n      require(msg.value >= price_need, \"price payed not enough\");\n      require(msg.sender.balance >= msg.value, \"balance not enough\");\n    \n      //check ownership\n      address owner = domainOwner(domainPrefix);\n      require(owner == msg.sender, \"only ENS owner can add title\");\n      \n      //check duplication\n      bytes32 thash = keccak256(abi.encodePacked(newTitle));\n      require(bytes(_titlesOwner[thash]).length==0, \"title already occupied\");\n      // save data\n      _titles[domainPrefix].push(newTitle);\n      _titlesOwner[thash] = domainPrefix;\n      _admin.transfer(msg.value);\n      emit TitleCreated(newTitle, domainPrefix, owner, msg.value);\n  }\n\n  //check if title already used\n  function checkTitleUsed(string memory title) public view returns (bool) {\n    bytes32 thash = keccak256(abi.encodePacked(title));\n    return bytes(_titlesOwner[thash]).length != 0;\n  }\n\n  function \n  getTitles(\n    string memory domainPrefix\n  ) public view returns (string[] memory) {\n    return _titles[domainPrefix];\n  }\n\n  function domainOwner(string memory domainPrefix) private view returns (address) {\n     bytes32 namehash = 0x0000000000000000000000000000000000000000000000000000000000000000;\n    namehash = keccak256(\n    abi.encodePacked(namehash, keccak256(abi.encodePacked('eth')))\n    );\n    namehash = keccak256(\n    abi.encodePacked(namehash, keccak256(abi.encodePacked(domainPrefix)))\n    );\n    return IENS(_ensRegistry).owner(namehash);\n  }\n\n}\n\n",
  "sourcePath": "/home/ubuntu/X-File-Web3/contracts/EnsTitle.sol",
  "compiler": {
    "name": "solc",
    "version": "0.8.10+commit.fc410830.Emscripten.clang"
  },
  "schemaVersion": "3.4.4",
  "updatedAt": "2021-12-18T15:37:03.414Z",
  "devdoc": {
    "kind": "dev",
    "methods": {},
    "version": 1
  },
  "userdoc": {
    "kind": "user",
    "methods": {},
    "version": 1
  }
}