{
  "contractName": "EnsTitle",
  "abi": [
    {
      "inputs": [
        {
          "internalType": "string",
          "name": "domainPrefix",
          "type": "string"
        },
        {
          "internalType": "string",
          "name": "newTitle",
          "type": "string"
        }
      ],
      "name": "addTitle",
      "outputs": [
        {
          "internalType": "bool",
          "name": "",
          "type": "bool"
        }
      ],
      "stateMutability": "nonpayable",
      "type": "function"
    },
    {
      "inputs": [
        {
          "internalType": "string",
          "name": "domainPrefix",
          "type": "string"
        }
      ],
      "name": "getTitles",
      "outputs": [
        {
          "internalType": "string[]",
          "name": "",
          "type": "string[]"
        }
      ],
      "stateMutability": "view",
      "type": "function"
    }
  ],
  "bytecode": "0x60806040526e0c2e074ec69a0dfb2997ba6c7d2e1e6000806101000a81548173ffffffffffffffffffffffffffffffffffffffff021916908373ffffffffffffffffffffffffffffffffffffffff16021790555034801561005f57600080fd5b50610dac8061006f6000396000f3fe608060405234801561001057600080fd5b50600436106100365760003560e01c80634f5222251461003b578063c0ee311c1461006b575b600080fd5b61005560048036038101906100509190610731565b61009b565b60405161006291906107c4565b60405180910390f35b610085600480360381019061008091906107df565b6102f2565b6040516100929190610972565b60405180910390f35b60008073ffffffffffffffffffffffffffffffffffffffff163373ffffffffffffffffffffffffffffffffffffffff1614156100d657600080fd5b600082511161011a576040517f08c379a0000000000000000000000000000000000000000000000000000000008152600401610111906109f1565b60405180910390fd5b604082511061015e576040517f08c379a000000000000000000000000000000000000000000000000000000000815260040161015590610a5d565b60405180910390fd5b6000610169846103e9565b90503373ffffffffffffffffffffffffffffffffffffffff168173ffffffffffffffffffffffffffffffffffffffff16146101d9576040517f08c379a00000000000000000000000000000000000000000000000000000000081526004016101d090610ac9565b60405180910390fd5b6000836040516020016101ec9190610b25565b604051602081830303815290604052805190602001209050600060026000838152602001908152602001600020805461022490610b6b565b905014610266576040517f08c379a000000000000000000000000000000000000000000000000000000000815260040161025d90610be9565b60405180910390fd5b6001856040516102769190610b25565b9081526020016040518091039020849080600181540180825580915050600190039060005260206000200160009091909190915090805190602001906102bd929190610534565b50846002600083815260200190815260200160002090805190602001906102e5929190610534565b5060019250505092915050565b60606001826040516103049190610b25565b9081526020016040518091039020805480602002602001604051908101604052809291908181526020016000905b828210156103de57838290600052602060002001805461035190610b6b565b80601f016020809104026020016040519081016040528092919081815260200182805461037d90610b6b565b80156103ca5780601f1061039f576101008083540402835291602001916103ca565b820191906000526020600020905b8154815290600101906020018083116103ad57829003601f168201915b505050505081526020019060010190610332565b505050509050919050565b6000806000801b90508060405160200161040290610c55565b60405160208183030381529060405280519060200120604051602001610429929190610c95565b60405160208183030381529060405280519060200120905080836040516020016104539190610b25565b6040516020818303038152906040528051906020012060405160200161047a929190610c95565b60405160208183030381529060405280519060200120905060008054906101000a900473ffffffffffffffffffffffffffffffffffffffff1673ffffffffffffffffffffffffffffffffffffffff166302571be3826040518263ffffffff1660e01b81526004016104eb9190610cd0565b602060405180830381865afa158015610508573d6000803e3d6000fd5b505050506040513d601f19601f8201168201806040525081019061052c9190610d49565b915050919050565b82805461054090610b6b565b90600052602060002090601f01602090048101928261056257600085556105a9565b82601f1061057b57805160ff19168380011785556105a9565b828001600101855582156105a9579182015b828111156105a857825182559160200191906001019061058d565b5b5090506105b691906105ba565b5090565b5b808211156105d35760008160009055506001016105bb565b5090565b6000604051905090565b600080fd5b600080fd5b600080fd5b600080fd5b6000601f19601f8301169050919050565b7f4e487b7100000000000000000000000000000000000000000000000000000000600052604160045260246000fd5b61063e826105f5565b810181811067ffffffffffffffff8211171561065d5761065c610606565b5b80604052505050565b60006106706105d7565b905061067c8282610635565b919050565b600067ffffffffffffffff82111561069c5761069b610606565b5b6106a5826105f5565b9050602081019050919050565b82818337600083830152505050565b60006106d46106cf84610681565b610666565b9050828152602081018484840111156106f0576106ef6105f0565b5b6106fb8482856106b2565b509392505050565b600082601f830112610718576107176105eb565b5b81356107288482602086016106c1565b91505092915050565b60008060408385031215610748576107476105e1565b5b600083013567ffffffffffffffff811115610766576107656105e6565b5b61077285828601610703565b925050602083013567ffffffffffffffff811115610793576107926105e6565b5b61079f85828601610703565b9150509250929050565b60008115159050919050565b6107be816107a9565b82525050565b60006020820190506107d960008301846107b5565b92915050565b6000602082840312156107f5576107f46105e1565b5b600082013567ffffffffffffffff811115610813576108126105e6565b5b61081f84828501610703565b91505092915050565b600081519050919050565b600082825260208201905092915050565b6000819050602082019050919050565b600081519050919050565b600082825260208201905092915050565b60005b8381101561088e578082015181840152602081019050610873565b8381111561089d576000848401525b50505050565b60006108ae82610854565b6108b8818561085f565b93506108c8818560208601610870565b6108d1816105f5565b840191505092915050565b60006108e883836108a3565b905092915050565b6000602082019050919050565b600061090882610828565b6109128185610833565b93508360208202850161092485610844565b8060005b85811015610960578484038952815161094185826108dc565b945061094c836108f0565b925060208a01995050600181019050610928565b50829750879550505050505092915050565b6000602082019050818103600083015261098c81846108fd565b905092915050565b600082825260208201905092915050565b7f7469746c652073686f756c64206e6f7420626520656d70747900000000000000600082015250565b60006109db601983610994565b91506109e6826109a5565b602082019050919050565b60006020820190508181036000830152610a0a816109ce565b9050919050565b7f7469746c6520746f6f206c6f6e67000000000000000000000000000000000000600082015250565b6000610a47600e83610994565b9150610a5282610a11565b602082019050919050565b60006020820190508181036000830152610a7681610a3a565b9050919050565b7f6f6e6c7920454e53206f776e65722063616e20616464207469746c6500000000600082015250565b6000610ab3601c83610994565b9150610abe82610a7d565b602082019050919050565b60006020820190508181036000830152610ae281610aa6565b9050919050565b600081905092915050565b6000610aff82610854565b610b098185610ae9565b9350610b19818560208601610870565b80840191505092915050565b6000610b318284610af4565b915081905092915050565b7f4e487b7100000000000000000000000000000000000000000000000000000000600052602260045260246000fd5b60006002820490506001821680610b8357607f821691505b60208210811415610b9757610b96610b3c565b5b50919050565b7f7469746c6520616c7265616479206f6363757069656400000000000000000000600082015250565b6000610bd3601683610994565b9150610bde82610b9d565b602082019050919050565b60006020820190508181036000830152610c0281610bc6565b9050919050565b7f6574680000000000000000000000000000000000000000000000000000000000600082015250565b6000610c3f600383610ae9565b9150610c4a82610c09565b600382019050919050565b6000610c6082610c32565b9150819050919050565b6000819050919050565b6000819050919050565b610c8f610c8a82610c6a565b610c74565b82525050565b6000610ca18285610c7e565b602082019150610cb18284610c7e565b6020820191508190509392505050565b610cca81610c6a565b82525050565b6000602082019050610ce56000830184610cc1565b92915050565b600073ffffffffffffffffffffffffffffffffffffffff82169050919050565b6000610d1682610ceb565b9050919050565b610d2681610d0b565b8114610d3157600080fd5b50565b600081519050610d4381610d1d565b92915050565b600060208284031215610d5f57610d5e6105e1565b5b6000610d6d84828501610d34565b9150509291505056fea2646970667358221220f17cf2fe5d95ebebdafd78cae9b8e8d5d04a10707496bd1aba34ec030178625d64736f6c634300080a0033",
  "immutableReferences": {},
  "source": "// SPDX-License-Identifier: MIT\npragma solidity ^0.8.2;\n\nimport \"./IEns.sol\";\n\ncontract EnsTitle {\n  //ens contract address, same for Mainnet, Testnet\n\taddress private _ensRegistry = address(0x00000000000C2E074eC69A0dFb2997BA6C7d2e1e);\n\n  mapping(string => string[]) _titles;\n  mapping(bytes32 => string) _titlesOwner;\n\n  function addTitle(\n    string memory domainPrefix, \n    string memory newTitle) \n   public returns (bool) {\n      require(msg.sender != address(0));\n      //check invalid args\n      require(bytes(newTitle).length>0, \"title should not be empty\");\n      require(bytes(newTitle).length<64, \"title too long\");\n     \n      //check ownership\n      address owner = domainOwner(domainPrefix);\n      require(owner == msg.sender, \"only ENS owner can add title\");\n      \n      //check duplication\n      bytes32 thash = keccak256(abi.encodePacked(newTitle));\n      require(bytes(_titlesOwner[thash]).length==0, \"title already occupied\");\n      // save data\n      _titles[domainPrefix].push(newTitle);\n      _titlesOwner[thash] = domainPrefix;\n      return true;\n  }\n\n  function \n  getTitles(\n    string memory domainPrefix\n  ) public view returns (string[] memory) {\n    return _titles[domainPrefix];\n  }\n\n  function domainOwner(string memory domainPrefix) private view returns (address) {\n     bytes32 namehash = 0x0000000000000000000000000000000000000000000000000000000000000000;\n    namehash = keccak256(\n    abi.encodePacked(namehash, keccak256(abi.encodePacked('eth')))\n    );\n    namehash = keccak256(\n    abi.encodePacked(namehash, keccak256(abi.encodePacked(domainPrefix)))\n    );\n    return IENS(_ensRegistry).owner(namehash);\n  }\n\n}\n\n",
  "sourcePath": "/Users/henry/repos/x-file-web3/contracts/EnsTitle.sol",
  "compiler": {
    "name": "solc",
    "version": "0.8.10+commit.fc410830.Emscripten.clang"
  },
  "schemaVersion": "3.4.3",
  "updatedAt": "2021-12-16T11:16:04.804Z",
  "devdoc": {
    "kind": "dev",
    "methods": {},
    "version": 1
  },
  "userdoc": {
    "kind": "user",
    "methods": {},
    "version": 1
  }
}